{
	"MyBooks.sol": {
		"myBook": {
			"abi": [
				{
					"inputs": [],
					"name": "getBook",
					"outputs": [
						{
							"internalType": "string",
							"name": "",
							"type": "string"
						},
						{
							"internalType": "uint16",
							"name": "",
							"type": "uint16"
						}
					],
					"stateMutability": "view",
					"type": "function"
				},
				{
					"inputs": [],
					"name": "price",
					"outputs": [
						{
							"internalType": "uint8",
							"name": "",
							"type": "uint8"
						}
					],
					"stateMutability": "view",
					"type": "function"
				},
				{
					"inputs": [
						{
							"internalType": "string",
							"name": "_title",
							"type": "string"
						},
						{
							"internalType": "uint8",
							"name": "_price",
							"type": "uint8"
						}
					],
					"name": "setBook",
					"outputs": [],
					"stateMutability": "nonpayable",
					"type": "function"
				},
				{
					"inputs": [],
					"name": "title",
					"outputs": [
						{
							"internalType": "string",
							"name": "",
							"type": "string"
						}
					],
					"stateMutability": "view",
					"type": "function"
				}
			],
			"devdoc": {
				"kind": "dev",
				"methods": {},
				"version": 1
			},
			"evm": {
				"assembly": "    /* \"MyBooks.sol\":56:345  contract myBook{... */\n  mstore(0x40, 0x80)\n  callvalue\n  dup1\n  iszero\n  tag_1\n  jumpi\n  0x00\n  dup1\n  revert\ntag_1:\n  pop\n  dataSize(sub_0)\n  dup1\n  dataOffset(sub_0)\n  0x00\n  codecopy\n  0x00\n  return\nstop\n\nsub_0: assembly {\n        /* \"MyBooks.sol\":56:345  contract myBook{... */\n      mstore(0x40, 0x80)\n      callvalue\n      dup1\n      iszero\n      tag_1\n      jumpi\n      0x00\n      dup1\n      revert\n    tag_1:\n      pop\n      jumpi(tag_2, lt(calldatasize, 0x04))\n      shr(0xe0, calldataload(0x00))\n      dup1\n      0x25f3f928\n      eq\n      tag_3\n      jumpi\n      dup1\n      0x3b0c197e\n      eq\n      tag_4\n      jumpi\n      dup1\n      0x4a79d50c\n      eq\n      tag_5\n      jumpi\n      dup1\n      0xa035b1fe\n      eq\n      tag_6\n      jumpi\n    tag_2:\n      0x00\n      dup1\n      revert\n        /* \"MyBooks.sol\":230:343  function setBook(string memory _title,uint8 _price) public {... */\n    tag_3:\n      tag_7\n      0x04\n      dup1\n      calldatasize\n      sub\n      dup2\n      add\n      swap1\n      tag_8\n      swap2\n      swap1\n      tag_9\n      jump\t// in\n    tag_8:\n      tag_10\n      jump\t// in\n    tag_7:\n      stop\n        /* \"MyBooks.sol\":127:225  function getBook() public view returns (string memory,uint16){... */\n    tag_4:\n      tag_11\n      tag_12\n      jump\t// in\n    tag_11:\n      mload(0x40)\n      tag_13\n      swap3\n      swap2\n      swap1\n      tag_14\n      jump\t// in\n    tag_13:\n      mload(0x40)\n      dup1\n      swap2\n      sub\n      swap1\n      return\n        /* \"MyBooks.sol\":77:96  string public title */\n    tag_5:\n      tag_15\n      tag_16\n      jump\t// in\n    tag_15:\n      mload(0x40)\n      tag_17\n      swap2\n      swap1\n      tag_18\n      jump\t// in\n    tag_17:\n      mload(0x40)\n      dup1\n      swap2\n      sub\n      swap1\n      return\n        /* \"MyBooks.sol\":102:120  uint8 public price */\n    tag_6:\n      tag_19\n      tag_20\n      jump\t// in\n    tag_19:\n      mload(0x40)\n      tag_21\n      swap2\n      swap1\n      tag_22\n      jump\t// in\n    tag_21:\n      mload(0x40)\n      dup1\n      swap2\n      sub\n      swap1\n      return\n        /* \"MyBooks.sol\":230:343  function setBook(string memory _title,uint8 _price) public {... */\n    tag_10:\n        /* \"MyBooks.sol\":307:313  _title */\n      dup2\n        /* \"MyBooks.sol\":299:304  title */\n      0x00\n        /* \"MyBooks.sol\":299:313  title = _title */\n      swap1\n      dup2\n      tag_24\n      swap2\n      swap1\n      tag_25\n      jump\t// in\n    tag_24:\n      pop\n        /* \"MyBooks.sol\":330:336  _price */\n      dup1\n        /* \"MyBooks.sol\":323:328  price */\n      0x01\n      0x00\n        /* \"MyBooks.sol\":323:336  price =_price */\n      0x0100\n      exp\n      dup2\n      sload\n      dup2\n      0xff\n      mul\n      not\n      and\n      swap1\n      dup4\n      0xff\n      and\n      mul\n      or\n      swap1\n      sstore\n      pop\n        /* \"MyBooks.sol\":230:343  function setBook(string memory _title,uint8 _price) public {... */\n      pop\n      pop\n      jump\t// out\n        /* \"MyBooks.sol\":127:225  function getBook() public view returns (string memory,uint16){... */\n    tag_12:\n        /* \"MyBooks.sol\":167:180  string memory */\n      0x60\n        /* \"MyBooks.sol\":181:187  uint16 */\n      0x00\n        /* \"MyBooks.sol\":206:211  title */\n      dup1\n        /* \"MyBooks.sol\":212:217  price */\n      0x01\n      0x00\n      swap1\n      sload\n      swap1\n      0x0100\n      exp\n      swap1\n      div\n      0xff\n      and\n        /* \"MyBooks.sol\":198:218  return (title,price) */\n      dup2\n      dup1\n      sload\n      tag_27\n      swap1\n      tag_28\n      jump\t// in\n    tag_27:\n      dup1\n      0x1f\n      add\n      0x20\n      dup1\n      swap2\n      div\n      mul\n      0x20\n      add\n      mload(0x40)\n      swap1\n      dup2\n      add\n      0x40\n      mstore\n      dup1\n      swap3\n      swap2\n      swap1\n      dup2\n      dup2\n      mstore\n      0x20\n      add\n      dup3\n      dup1\n      sload\n      tag_29\n      swap1\n      tag_28\n      jump\t// in\n    tag_29:\n      dup1\n      iszero\n      tag_30\n      jumpi\n      dup1\n      0x1f\n      lt\n      tag_31\n      jumpi\n      0x0100\n      dup1\n      dup4\n      sload\n      div\n      mul\n      dup4\n      mstore\n      swap2\n      0x20\n      add\n      swap2\n      jump(tag_30)\n    tag_31:\n      dup3\n      add\n      swap2\n      swap1\n      0x00\n      mstore\n      keccak256(0x00, 0x20)\n      swap1\n    tag_32:\n      dup2\n      sload\n      dup2\n      mstore\n      swap1\n      0x01\n      add\n      swap1\n      0x20\n      add\n      dup1\n      dup4\n      gt\n      tag_32\n      jumpi\n      dup3\n      swap1\n      sub\n      0x1f\n      and\n      dup3\n      add\n      swap2\n    tag_30:\n      pop\n      pop\n      pop\n      pop\n      pop\n      swap2\n      pop\n      dup1\n      0xff\n      and\n      swap1\n      pop\n      swap2\n      pop\n      swap2\n      pop\n        /* \"MyBooks.sol\":127:225  function getBook() public view returns (string memory,uint16){... */\n      swap1\n      swap2\n      jump\t// out\n        /* \"MyBooks.sol\":77:96  string public title */\n    tag_16:\n      0x00\n      dup1\n      sload\n      tag_33\n      swap1\n      tag_28\n      jump\t// in\n    tag_33:\n      dup1\n      0x1f\n      add\n      0x20\n      dup1\n      swap2\n      div\n      mul\n      0x20\n      add\n      mload(0x40)\n      swap1\n      dup2\n      add\n      0x40\n      mstore\n      dup1\n      swap3\n      swap2\n      swap1\n      dup2\n      dup2\n      mstore\n      0x20\n      add\n      dup3\n      dup1\n      sload\n      tag_34\n      swap1\n      tag_28\n      jump\t// in\n    tag_34:\n      dup1\n      iszero\n      tag_35\n      jumpi\n      dup1\n      0x1f\n      lt\n      tag_36\n      jumpi\n      0x0100\n      dup1\n      dup4\n      sload\n      div\n      mul\n      dup4\n      mstore\n      swap2\n      0x20\n      add\n      swap2\n      jump(tag_35)\n    tag_36:\n      dup3\n      add\n      swap2\n      swap1\n      0x00\n      mstore\n      keccak256(0x00, 0x20)\n      swap1\n    tag_37:\n      dup2\n      sload\n      dup2\n      mstore\n      swap1\n      0x01\n      add\n      swap1\n      0x20\n      add\n      dup1\n      dup4\n      gt\n      tag_37\n      jumpi\n      dup3\n      swap1\n      sub\n      0x1f\n      and\n      dup3\n      add\n      swap2\n    tag_35:\n      pop\n      pop\n      pop\n      pop\n      pop\n      dup2\n      jump\t// out\n        /* \"MyBooks.sol\":102:120  uint8 public price */\n    tag_20:\n      0x01\n      0x00\n      swap1\n      sload\n      swap1\n      0x0100\n      exp\n      swap1\n      div\n      0xff\n      and\n      dup2\n      jump\t// out\n        /* \"#utility.yul\":7:82   */\n    tag_38:\n        /* \"#utility.yul\":40:46   */\n      0x00\n        /* \"#utility.yul\":73:75   */\n      0x40\n        /* \"#utility.yul\":67:76   */\n      mload\n        /* \"#utility.yul\":57:76   */\n      swap1\n      pop\n        /* \"#utility.yul\":7:82   */\n      swap1\n      jump\t// out\n        /* \"#utility.yul\":88:205   */\n    tag_39:\n        /* \"#utility.yul\":197:198   */\n      0x00\n        /* \"#utility.yul\":194:195   */\n      dup1\n        /* \"#utility.yul\":187:199   */\n      revert\n        /* \"#utility.yul\":211:328   */\n    tag_40:\n        /* \"#utility.yul\":320:321   */\n      0x00\n        /* \"#utility.yul\":317:318   */\n      dup1\n        /* \"#utility.yul\":310:322   */\n      revert\n        /* \"#utility.yul\":334:451   */\n    tag_41:\n        /* \"#utility.yul\":443:444   */\n      0x00\n        /* \"#utility.yul\":440:441   */\n      dup1\n        /* \"#utility.yul\":433:445   */\n      revert\n        /* \"#utility.yul\":457:574   */\n    tag_42:\n        /* \"#utility.yul\":566:567   */\n      0x00\n        /* \"#utility.yul\":563:564   */\n      dup1\n        /* \"#utility.yul\":556:568   */\n      revert\n        /* \"#utility.yul\":580:682   */\n    tag_43:\n        /* \"#utility.yul\":621:627   */\n      0x00\n        /* \"#utility.yul\":672:674   */\n      0x1f\n        /* \"#utility.yul\":668:675   */\n      not\n        /* \"#utility.yul\":663:665   */\n      0x1f\n        /* \"#utility.yul\":656:661   */\n      dup4\n        /* \"#utility.yul\":652:666   */\n      add\n        /* \"#utility.yul\":648:676   */\n      and\n        /* \"#utility.yul\":638:676   */\n      swap1\n      pop\n        /* \"#utility.yul\":580:682   */\n      swap2\n      swap1\n      pop\n      jump\t// out\n        /* \"#utility.yul\":688:868   */\n    tag_44:\n        /* \"#utility.yul\":736:813   */\n      0x4e487b7100000000000000000000000000000000000000000000000000000000\n        /* \"#utility.yul\":733:734   */\n      0x00\n        /* \"#utility.yul\":726:814   */\n      mstore\n        /* \"#utility.yul\":833:837   */\n      0x41\n        /* \"#utility.yul\":830:831   */\n      0x04\n        /* \"#utility.yul\":823:838   */\n      mstore\n        /* \"#utility.yul\":857:861   */\n      0x24\n        /* \"#utility.yul\":854:855   */\n      0x00\n        /* \"#utility.yul\":847:862   */\n      revert\n        /* \"#utility.yul\":874:1155   */\n    tag_45:\n        /* \"#utility.yul\":957:984   */\n      tag_87\n        /* \"#utility.yul\":979:983   */\n      dup3\n        /* \"#utility.yul\":957:984   */\n      tag_43\n      jump\t// in\n    tag_87:\n        /* \"#utility.yul\":949:955   */\n      dup2\n        /* \"#utility.yul\":945:985   */\n      add\n        /* \"#utility.yul\":1087:1093   */\n      dup2\n        /* \"#utility.yul\":1075:1085   */\n      dup2\n        /* \"#utility.yul\":1072:1094   */\n      lt\n        /* \"#utility.yul\":1051:1069   */\n      0xffffffffffffffff\n        /* \"#utility.yul\":1039:1049   */\n      dup3\n        /* \"#utility.yul\":1036:1070   */\n      gt\n        /* \"#utility.yul\":1033:1095   */\n      or\n        /* \"#utility.yul\":1030:1118   */\n      iszero\n      tag_88\n      jumpi\n        /* \"#utility.yul\":1098:1116   */\n      tag_89\n      tag_44\n      jump\t// in\n    tag_89:\n        /* \"#utility.yul\":1030:1118   */\n    tag_88:\n        /* \"#utility.yul\":1138:1148   */\n      dup1\n        /* \"#utility.yul\":1134:1136   */\n      0x40\n        /* \"#utility.yul\":1127:1149   */\n      mstore\n        /* \"#utility.yul\":917:1155   */\n      pop\n        /* \"#utility.yul\":874:1155   */\n      pop\n      pop\n      jump\t// out\n        /* \"#utility.yul\":1161:1290   */\n    tag_46:\n        /* \"#utility.yul\":1195:1201   */\n      0x00\n        /* \"#utility.yul\":1222:1242   */\n      tag_91\n      tag_38\n      jump\t// in\n    tag_91:\n        /* \"#utility.yul\":1212:1242   */\n      swap1\n      pop\n        /* \"#utility.yul\":1251:1284   */\n      tag_92\n        /* \"#utility.yul\":1279:1283   */\n      dup3\n        /* \"#utility.yul\":1271:1277   */\n      dup3\n        /* \"#utility.yul\":1251:1284   */\n      tag_45\n      jump\t// in\n    tag_92:\n        /* \"#utility.yul\":1161:1290   */\n      swap2\n      swap1\n      pop\n      jump\t// out\n        /* \"#utility.yul\":1296:1604   */\n    tag_47:\n        /* \"#utility.yul\":1358:1362   */\n      0x00\n        /* \"#utility.yul\":1448:1466   */\n      0xffffffffffffffff\n        /* \"#utility.yul\":1440:1446   */\n      dup3\n        /* \"#utility.yul\":1437:1467   */\n      gt\n        /* \"#utility.yul\":1434:1490   */\n      iszero\n      tag_94\n      jumpi\n        /* \"#utility.yul\":1470:1488   */\n      tag_95\n      tag_44\n      jump\t// in\n    tag_95:\n        /* \"#utility.yul\":1434:1490   */\n    tag_94:\n        /* \"#utility.yul\":1508:1537   */\n      tag_96\n        /* \"#utility.yul\":1530:1536   */\n      dup3\n        /* \"#utility.yul\":1508:1537   */\n      tag_43\n      jump\t// in\n    tag_96:\n        /* \"#utility.yul\":1500:1537   */\n      swap1\n      pop\n        /* \"#utility.yul\":1592:1596   */\n      0x20\n        /* \"#utility.yul\":1586:1590   */\n      dup2\n        /* \"#utility.yul\":1582:1597   */\n      add\n        /* \"#utility.yul\":1574:1597   */\n      swap1\n      pop\n        /* \"#utility.yul\":1296:1604   */\n      swap2\n      swap1\n      pop\n      jump\t// out\n        /* \"#utility.yul\":1610:1758   */\n    tag_48:\n        /* \"#utility.yul\":1708:1714   */\n      dup3\n        /* \"#utility.yul\":1703:1706   */\n      dup2\n        /* \"#utility.yul\":1698:1701   */\n      dup4\n        /* \"#utility.yul\":1685:1715   */\n      calldatacopy\n        /* \"#utility.yul\":1749:1750   */\n      0x00\n        /* \"#utility.yul\":1740:1746   */\n      dup4\n        /* \"#utility.yul\":1735:1738   */\n      dup4\n        /* \"#utility.yul\":1731:1747   */\n      add\n        /* \"#utility.yul\":1724:1751   */\n      mstore\n        /* \"#utility.yul\":1610:1758   */\n      pop\n      pop\n      pop\n      jump\t// out\n        /* \"#utility.yul\":1764:2189   */\n    tag_49:\n        /* \"#utility.yul\":1842:1847   */\n      0x00\n        /* \"#utility.yul\":1867:1933   */\n      tag_99\n        /* \"#utility.yul\":1883:1932   */\n      tag_100\n        /* \"#utility.yul\":1925:1931   */\n      dup5\n        /* \"#utility.yul\":1883:1932   */\n      tag_47\n      jump\t// in\n    tag_100:\n        /* \"#utility.yul\":1867:1933   */\n      tag_46\n      jump\t// in\n    tag_99:\n        /* \"#utility.yul\":1858:1933   */\n      swap1\n      pop\n        /* \"#utility.yul\":1956:1962   */\n      dup3\n        /* \"#utility.yul\":1949:1954   */\n      dup2\n        /* \"#utility.yul\":1942:1963   */\n      mstore\n        /* \"#utility.yul\":1994:1998   */\n      0x20\n        /* \"#utility.yul\":1987:1992   */\n      dup2\n        /* \"#utility.yul\":1983:1999   */\n      add\n        /* \"#utility.yul\":2032:2035   */\n      dup5\n        /* \"#utility.yul\":2023:2029   */\n      dup5\n        /* \"#utility.yul\":2018:2021   */\n      dup5\n        /* \"#utility.yul\":2014:2030   */\n      add\n        /* \"#utility.yul\":2011:2036   */\n      gt\n        /* \"#utility.yul\":2008:2120   */\n      iszero\n      tag_101\n      jumpi\n        /* \"#utility.yul\":2039:2118   */\n      tag_102\n      tag_42\n      jump\t// in\n    tag_102:\n        /* \"#utility.yul\":2008:2120   */\n    tag_101:\n        /* \"#utility.yul\":2129:2183   */\n      tag_103\n        /* \"#utility.yul\":2176:2182   */\n      dup5\n        /* \"#utility.yul\":2171:2174   */\n      dup3\n        /* \"#utility.yul\":2166:2169   */\n      dup6\n        /* \"#utility.yul\":2129:2183   */\n      tag_48\n      jump\t// in\n    tag_103:\n        /* \"#utility.yul\":1848:2189   */\n      pop\n        /* \"#utility.yul\":1764:2189   */\n      swap4\n      swap3\n      pop\n      pop\n      pop\n      jump\t// out\n        /* \"#utility.yul\":2209:2549   */\n    tag_50:\n        /* \"#utility.yul\":2265:2270   */\n      0x00\n        /* \"#utility.yul\":2314:2317   */\n      dup3\n        /* \"#utility.yul\":2307:2311   */\n      0x1f\n        /* \"#utility.yul\":2299:2305   */\n      dup4\n        /* \"#utility.yul\":2295:2312   */\n      add\n        /* \"#utility.yul\":2291:2318   */\n      slt\n        /* \"#utility.yul\":2281:2403   */\n      tag_105\n      jumpi\n        /* \"#utility.yul\":2322:2401   */\n      tag_106\n      tag_41\n      jump\t// in\n    tag_106:\n        /* \"#utility.yul\":2281:2403   */\n    tag_105:\n        /* \"#utility.yul\":2439:2445   */\n      dup2\n        /* \"#utility.yul\":2426:2446   */\n      calldataload\n        /* \"#utility.yul\":2464:2543   */\n      tag_107\n        /* \"#utility.yul\":2539:2542   */\n      dup5\n        /* \"#utility.yul\":2531:2537   */\n      dup3\n        /* \"#utility.yul\":2524:2528   */\n      0x20\n        /* \"#utility.yul\":2516:2522   */\n      dup7\n        /* \"#utility.yul\":2512:2529   */\n      add\n        /* \"#utility.yul\":2464:2543   */\n      tag_49\n      jump\t// in\n    tag_107:\n        /* \"#utility.yul\":2455:2543   */\n      swap2\n      pop\n        /* \"#utility.yul\":2271:2549   */\n      pop\n        /* \"#utility.yul\":2209:2549   */\n      swap3\n      swap2\n      pop\n      pop\n      jump\t// out\n        /* \"#utility.yul\":2555:2641   */\n    tag_51:\n        /* \"#utility.yul\":2590:2597   */\n      0x00\n        /* \"#utility.yul\":2630:2634   */\n      0xff\n        /* \"#utility.yul\":2623:2628   */\n      dup3\n        /* \"#utility.yul\":2619:2635   */\n      and\n        /* \"#utility.yul\":2608:2635   */\n      swap1\n      pop\n        /* \"#utility.yul\":2555:2641   */\n      swap2\n      swap1\n      pop\n      jump\t// out\n        /* \"#utility.yul\":2647:2765   */\n    tag_52:\n        /* \"#utility.yul\":2718:2740   */\n      tag_110\n        /* \"#utility.yul\":2734:2739   */\n      dup2\n        /* \"#utility.yul\":2718:2740   */\n      tag_51\n      jump\t// in\n    tag_110:\n        /* \"#utility.yul\":2711:2716   */\n      dup2\n        /* \"#utility.yul\":2708:2741   */\n      eq\n        /* \"#utility.yul\":2698:2759   */\n      tag_111\n      jumpi\n        /* \"#utility.yul\":2755:2756   */\n      0x00\n        /* \"#utility.yul\":2752:2753   */\n      dup1\n        /* \"#utility.yul\":2745:2757   */\n      revert\n        /* \"#utility.yul\":2698:2759   */\n    tag_111:\n        /* \"#utility.yul\":2647:2765   */\n      pop\n      jump\t// out\n        /* \"#utility.yul\":2771:2906   */\n    tag_53:\n        /* \"#utility.yul\":2815:2820   */\n      0x00\n        /* \"#utility.yul\":2853:2859   */\n      dup2\n        /* \"#utility.yul\":2840:2860   */\n      calldataload\n        /* \"#utility.yul\":2831:2860   */\n      swap1\n      pop\n        /* \"#utility.yul\":2869:2900   */\n      tag_113\n        /* \"#utility.yul\":2894:2899   */\n      dup2\n        /* \"#utility.yul\":2869:2900   */\n      tag_52\n      jump\t// in\n    tag_113:\n        /* \"#utility.yul\":2771:2906   */\n      swap3\n      swap2\n      pop\n      pop\n      jump\t// out\n        /* \"#utility.yul\":2912:3562   */\n    tag_9:\n        /* \"#utility.yul\":2988:2994   */\n      0x00\n        /* \"#utility.yul\":2996:3002   */\n      dup1\n        /* \"#utility.yul\":3045:3047   */\n      0x40\n        /* \"#utility.yul\":3033:3042   */\n      dup4\n        /* \"#utility.yul\":3024:3031   */\n      dup6\n        /* \"#utility.yul\":3020:3043   */\n      sub\n        /* \"#utility.yul\":3016:3048   */\n      slt\n        /* \"#utility.yul\":3013:3132   */\n      iszero\n      tag_115\n      jumpi\n        /* \"#utility.yul\":3051:3130   */\n      tag_116\n      tag_39\n      jump\t// in\n    tag_116:\n        /* \"#utility.yul\":3013:3132   */\n    tag_115:\n        /* \"#utility.yul\":3199:3200   */\n      0x00\n        /* \"#utility.yul\":3188:3197   */\n      dup4\n        /* \"#utility.yul\":3184:3201   */\n      add\n        /* \"#utility.yul\":3171:3202   */\n      calldataload\n        /* \"#utility.yul\":3229:3247   */\n      0xffffffffffffffff\n        /* \"#utility.yul\":3221:3227   */\n      dup2\n        /* \"#utility.yul\":3218:3248   */\n      gt\n        /* \"#utility.yul\":3215:3332   */\n      iszero\n      tag_117\n      jumpi\n        /* \"#utility.yul\":3251:3330   */\n      tag_118\n      tag_40\n      jump\t// in\n    tag_118:\n        /* \"#utility.yul\":3215:3332   */\n    tag_117:\n        /* \"#utility.yul\":3356:3419   */\n      tag_119\n        /* \"#utility.yul\":3411:3418   */\n      dup6\n        /* \"#utility.yul\":3402:3408   */\n      dup3\n        /* \"#utility.yul\":3391:3400   */\n      dup7\n        /* \"#utility.yul\":3387:3409   */\n      add\n        /* \"#utility.yul\":3356:3419   */\n      tag_50\n      jump\t// in\n    tag_119:\n        /* \"#utility.yul\":3346:3419   */\n      swap3\n      pop\n        /* \"#utility.yul\":3142:3429   */\n      pop\n        /* \"#utility.yul\":3468:3470   */\n      0x20\n        /* \"#utility.yul\":3494:3545   */\n      tag_120\n        /* \"#utility.yul\":3537:3544   */\n      dup6\n        /* \"#utility.yul\":3528:3534   */\n      dup3\n        /* \"#utility.yul\":3517:3526   */\n      dup7\n        /* \"#utility.yul\":3513:3535   */\n      add\n        /* \"#utility.yul\":3494:3545   */\n      tag_53\n      jump\t// in\n    tag_120:\n        /* \"#utility.yul\":3484:3545   */\n      swap2\n      pop\n        /* \"#utility.yul\":3439:3555   */\n      pop\n        /* \"#utility.yul\":2912:3562   */\n      swap3\n      pop\n      swap3\n      swap1\n      pop\n      jump\t// out\n        /* \"#utility.yul\":3568:3667   */\n    tag_54:\n        /* \"#utility.yul\":3620:3626   */\n      0x00\n        /* \"#utility.yul\":3654:3659   */\n      dup2\n        /* \"#utility.yul\":3648:3660   */\n      mload\n        /* \"#utility.yul\":3638:3660   */\n      swap1\n      pop\n        /* \"#utility.yul\":3568:3667   */\n      swap2\n      swap1\n      pop\n      jump\t// out\n        /* \"#utility.yul\":3673:3842   */\n    tag_55:\n        /* \"#utility.yul\":3757:3768   */\n      0x00\n        /* \"#utility.yul\":3791:3797   */\n      dup3\n        /* \"#utility.yul\":3786:3789   */\n      dup3\n        /* \"#utility.yul\":3779:3798   */\n      mstore\n        /* \"#utility.yul\":3831:3835   */\n      0x20\n        /* \"#utility.yul\":3826:3829   */\n      dup3\n        /* \"#utility.yul\":3822:3836   */\n      add\n        /* \"#utility.yul\":3807:3836   */\n      swap1\n      pop\n        /* \"#utility.yul\":3673:3842   */\n      swap3\n      swap2\n      pop\n      pop\n      jump\t// out\n        /* \"#utility.yul\":3848:3987   */\n    tag_56:\n        /* \"#utility.yul\":3937:3943   */\n      dup3\n        /* \"#utility.yul\":3932:3935   */\n      dup2\n        /* \"#utility.yul\":3927:3930   */\n      dup4\n        /* \"#utility.yul\":3921:3944   */\n      mcopy\n        /* \"#utility.yul\":3978:3979   */\n      0x00\n        /* \"#utility.yul\":3969:3975   */\n      dup4\n        /* \"#utility.yul\":3964:3967   */\n      dup4\n        /* \"#utility.yul\":3960:3976   */\n      add\n        /* \"#utility.yul\":3953:3980   */\n      mstore\n        /* \"#utility.yul\":3848:3987   */\n      pop\n      pop\n      pop\n      jump\t// out\n        /* \"#utility.yul\":3993:4370   */\n    tag_57:\n        /* \"#utility.yul\":4081:4084   */\n      0x00\n        /* \"#utility.yul\":4109:4148   */\n      tag_125\n        /* \"#utility.yul\":4142:4147   */\n      dup3\n        /* \"#utility.yul\":4109:4148   */\n      tag_54\n      jump\t// in\n    tag_125:\n        /* \"#utility.yul\":4164:4235   */\n      tag_126\n        /* \"#utility.yul\":4228:4234   */\n      dup2\n        /* \"#utility.yul\":4223:4226   */\n      dup6\n        /* \"#utility.yul\":4164:4235   */\n      tag_55\n      jump\t// in\n    tag_126:\n        /* \"#utility.yul\":4157:4235   */\n      swap4\n      pop\n        /* \"#utility.yul\":4244:4309   */\n      tag_127\n        /* \"#utility.yul\":4302:4308   */\n      dup2\n        /* \"#utility.yul\":4297:4300   */\n      dup6\n        /* \"#utility.yul\":4290:4294   */\n      0x20\n        /* \"#utility.yul\":4283:4288   */\n      dup7\n        /* \"#utility.yul\":4279:4295   */\n      add\n        /* \"#utility.yul\":4244:4309   */\n      tag_56\n      jump\t// in\n    tag_127:\n        /* \"#utility.yul\":4334:4363   */\n      tag_128\n        /* \"#utility.yul\":4356:4362   */\n      dup2\n        /* \"#utility.yul\":4334:4363   */\n      tag_43\n      jump\t// in\n    tag_128:\n        /* \"#utility.yul\":4329:4332   */\n      dup5\n        /* \"#utility.yul\":4325:4364   */\n      add\n        /* \"#utility.yul\":4318:4364   */\n      swap2\n      pop\n        /* \"#utility.yul\":4085:4370   */\n      pop\n        /* \"#utility.yul\":3993:4370   */\n      swap3\n      swap2\n      pop\n      pop\n      jump\t// out\n        /* \"#utility.yul\":4376:4465   */\n    tag_58:\n        /* \"#utility.yul\":4412:4419   */\n      0x00\n        /* \"#utility.yul\":4452:4458   */\n      0xffff\n        /* \"#utility.yul\":4445:4450   */\n      dup3\n        /* \"#utility.yul\":4441:4459   */\n      and\n        /* \"#utility.yul\":4430:4459   */\n      swap1\n      pop\n        /* \"#utility.yul\":4376:4465   */\n      swap2\n      swap1\n      pop\n      jump\t// out\n        /* \"#utility.yul\":4471:4586   */\n    tag_59:\n        /* \"#utility.yul\":4556:4579   */\n      tag_131\n        /* \"#utility.yul\":4573:4578   */\n      dup2\n        /* \"#utility.yul\":4556:4579   */\n      tag_58\n      jump\t// in\n    tag_131:\n        /* \"#utility.yul\":4551:4554   */\n      dup3\n        /* \"#utility.yul\":4544:4580   */\n      mstore\n        /* \"#utility.yul\":4471:4586   */\n      pop\n      pop\n      jump\t// out\n        /* \"#utility.yul\":4592:5011   */\n    tag_14:\n        /* \"#utility.yul\":4731:4735   */\n      0x00\n        /* \"#utility.yul\":4769:4771   */\n      0x40\n        /* \"#utility.yul\":4758:4767   */\n      dup3\n        /* \"#utility.yul\":4754:4772   */\n      add\n        /* \"#utility.yul\":4746:4772   */\n      swap1\n      pop\n        /* \"#utility.yul\":4818:4827   */\n      dup2\n        /* \"#utility.yul\":4812:4816   */\n      dup2\n        /* \"#utility.yul\":4808:4828   */\n      sub\n        /* \"#utility.yul\":4804:4805   */\n      0x00\n        /* \"#utility.yul\":4793:4802   */\n      dup4\n        /* \"#utility.yul\":4789:4806   */\n      add\n        /* \"#utility.yul\":4782:4829   */\n      mstore\n        /* \"#utility.yul\":4846:4924   */\n      tag_133\n        /* \"#utility.yul\":4919:4923   */\n      dup2\n        /* \"#utility.yul\":4910:4916   */\n      dup6\n        /* \"#utility.yul\":4846:4924   */\n      tag_57\n      jump\t// in\n    tag_133:\n        /* \"#utility.yul\":4838:4924   */\n      swap1\n      pop\n        /* \"#utility.yul\":4934:5004   */\n      tag_134\n        /* \"#utility.yul\":5000:5002   */\n      0x20\n        /* \"#utility.yul\":4989:4998   */\n      dup4\n        /* \"#utility.yul\":4985:5003   */\n      add\n        /* \"#utility.yul\":4976:4982   */\n      dup5\n        /* \"#utility.yul\":4934:5004   */\n      tag_59\n      jump\t// in\n    tag_134:\n        /* \"#utility.yul\":4592:5011   */\n      swap4\n      swap3\n      pop\n      pop\n      pop\n      jump\t// out\n        /* \"#utility.yul\":5017:5330   */\n    tag_18:\n        /* \"#utility.yul\":5130:5134   */\n      0x00\n        /* \"#utility.yul\":5168:5170   */\n      0x20\n        /* \"#utility.yul\":5157:5166   */\n      dup3\n        /* \"#utility.yul\":5153:5171   */\n      add\n        /* \"#utility.yul\":5145:5171   */\n      swap1\n      pop\n        /* \"#utility.yul\":5217:5226   */\n      dup2\n        /* \"#utility.yul\":5211:5215   */\n      dup2\n        /* \"#utility.yul\":5207:5227   */\n      sub\n        /* \"#utility.yul\":5203:5204   */\n      0x00\n        /* \"#utility.yul\":5192:5201   */\n      dup4\n        /* \"#utility.yul\":5188:5205   */\n      add\n        /* \"#utility.yul\":5181:5228   */\n      mstore\n        /* \"#utility.yul\":5245:5323   */\n      tag_136\n        /* \"#utility.yul\":5318:5322   */\n      dup2\n        /* \"#utility.yul\":5309:5315   */\n      dup5\n        /* \"#utility.yul\":5245:5323   */\n      tag_57\n      jump\t// in\n    tag_136:\n        /* \"#utility.yul\":5237:5323   */\n      swap1\n      pop\n        /* \"#utility.yul\":5017:5330   */\n      swap3\n      swap2\n      pop\n      pop\n      jump\t// out\n        /* \"#utility.yul\":5336:5448   */\n    tag_60:\n        /* \"#utility.yul\":5419:5441   */\n      tag_138\n        /* \"#utility.yul\":5435:5440   */\n      dup2\n        /* \"#utility.yul\":5419:5441   */\n      tag_51\n      jump\t// in\n    tag_138:\n        /* \"#utility.yul\":5414:5417   */\n      dup3\n        /* \"#utility.yul\":5407:5442   */\n      mstore\n        /* \"#utility.yul\":5336:5448   */\n      pop\n      pop\n      jump\t// out\n        /* \"#utility.yul\":5454:5668   */\n    tag_22:\n        /* \"#utility.yul\":5543:5547   */\n      0x00\n        /* \"#utility.yul\":5581:5583   */\n      0x20\n        /* \"#utility.yul\":5570:5579   */\n      dup3\n        /* \"#utility.yul\":5566:5584   */\n      add\n        /* \"#utility.yul\":5558:5584   */\n      swap1\n      pop\n        /* \"#utility.yul\":5594:5661   */\n      tag_140\n        /* \"#utility.yul\":5658:5659   */\n      0x00\n        /* \"#utility.yul\":5647:5656   */\n      dup4\n        /* \"#utility.yul\":5643:5660   */\n      add\n        /* \"#utility.yul\":5634:5640   */\n      dup5\n        /* \"#utility.yul\":5594:5661   */\n      tag_60\n      jump\t// in\n    tag_140:\n        /* \"#utility.yul\":5454:5668   */\n      swap3\n      swap2\n      pop\n      pop\n      jump\t// out\n        /* \"#utility.yul\":5674:5854   */\n    tag_61:\n        /* \"#utility.yul\":5722:5799   */\n      0x4e487b7100000000000000000000000000000000000000000000000000000000\n        /* \"#utility.yul\":5719:5720   */\n      0x00\n        /* \"#utility.yul\":5712:5800   */\n      mstore\n        /* \"#utility.yul\":5819:5823   */\n      0x22\n        /* \"#utility.yul\":5816:5817   */\n      0x04\n        /* \"#utility.yul\":5809:5824   */\n      mstore\n        /* \"#utility.yul\":5843:5847   */\n      0x24\n        /* \"#utility.yul\":5840:5841   */\n      0x00\n        /* \"#utility.yul\":5833:5848   */\n      revert\n        /* \"#utility.yul\":5860:6180   */\n    tag_28:\n        /* \"#utility.yul\":5904:5910   */\n      0x00\n        /* \"#utility.yul\":5941:5942   */\n      0x02\n        /* \"#utility.yul\":5935:5939   */\n      dup3\n        /* \"#utility.yul\":5931:5943   */\n      div\n        /* \"#utility.yul\":5921:5943   */\n      swap1\n      pop\n        /* \"#utility.yul\":5988:5989   */\n      0x01\n        /* \"#utility.yul\":5982:5986   */\n      dup3\n        /* \"#utility.yul\":5978:5990   */\n      and\n        /* \"#utility.yul\":6009:6027   */\n      dup1\n        /* \"#utility.yul\":5999:6080   */\n      tag_143\n      jumpi\n        /* \"#utility.yul\":6065:6069   */\n      0x7f\n        /* \"#utility.yul\":6057:6063   */\n      dup3\n        /* \"#utility.yul\":6053:6070   */\n      and\n        /* \"#utility.yul\":6043:6070   */\n      swap2\n      pop\n        /* \"#utility.yul\":5999:6080   */\n    tag_143:\n        /* \"#utility.yul\":6127:6129   */\n      0x20\n        /* \"#utility.yul\":6119:6125   */\n      dup3\n        /* \"#utility.yul\":6116:6130   */\n      lt\n        /* \"#utility.yul\":6096:6114   */\n      dup2\n        /* \"#utility.yul\":6093:6131   */\n      sub\n        /* \"#utility.yul\":6090:6174   */\n      tag_144\n      jumpi\n        /* \"#utility.yul\":6146:6164   */\n      tag_145\n      tag_61\n      jump\t// in\n    tag_145:\n        /* \"#utility.yul\":6090:6174   */\n    tag_144:\n        /* \"#utility.yul\":5911:6180   */\n      pop\n        /* \"#utility.yul\":5860:6180   */\n      swap2\n      swap1\n      pop\n      jump\t// out\n        /* \"#utility.yul\":6186:6327   */\n    tag_62:\n        /* \"#utility.yul\":6235:6239   */\n      0x00\n        /* \"#utility.yul\":6258:6261   */\n      dup2\n        /* \"#utility.yul\":6250:6261   */\n      swap1\n      pop\n        /* \"#utility.yul\":6281:6284   */\n      dup2\n        /* \"#utility.yul\":6278:6279   */\n      0x00\n        /* \"#utility.yul\":6271:6285   */\n      mstore\n        /* \"#utility.yul\":6315:6319   */\n      0x20\n        /* \"#utility.yul\":6312:6313   */\n      0x00\n        /* \"#utility.yul\":6302:6320   */\n      keccak256\n        /* \"#utility.yul\":6294:6320   */\n      swap1\n      pop\n        /* \"#utility.yul\":6186:6327   */\n      swap2\n      swap1\n      pop\n      jump\t// out\n        /* \"#utility.yul\":6333:6426   */\n    tag_63:\n        /* \"#utility.yul\":6370:6376   */\n      0x00\n        /* \"#utility.yul\":6417:6419   */\n      0x20\n        /* \"#utility.yul\":6412:6414   */\n      0x1f\n        /* \"#utility.yul\":6405:6410   */\n      dup4\n        /* \"#utility.yul\":6401:6415   */\n      add\n        /* \"#utility.yul\":6397:6420   */\n      div\n        /* \"#utility.yul\":6387:6420   */\n      swap1\n      pop\n        /* \"#utility.yul\":6333:6426   */\n      swap2\n      swap1\n      pop\n      jump\t// out\n        /* \"#utility.yul\":6432:6539   */\n    tag_64:\n        /* \"#utility.yul\":6476:6484   */\n      0x00\n        /* \"#utility.yul\":6526:6531   */\n      dup3\n        /* \"#utility.yul\":6520:6524   */\n      dup3\n        /* \"#utility.yul\":6516:6532   */\n      shl\n        /* \"#utility.yul\":6495:6532   */\n      swap1\n      pop\n        /* \"#utility.yul\":6432:6539   */\n      swap3\n      swap2\n      pop\n      pop\n      jump\t// out\n        /* \"#utility.yul\":6545:6938   */\n    tag_65:\n        /* \"#utility.yul\":6614:6620   */\n      0x00\n        /* \"#utility.yul\":6664:6665   */\n      0x08\n        /* \"#utility.yul\":6652:6662   */\n      dup4\n        /* \"#utility.yul\":6648:6666   */\n      mul\n        /* \"#utility.yul\":6687:6784   */\n      tag_150\n        /* \"#utility.yul\":6717:6783   */\n      0xffffffffffffffffffffffffffffffffffffffffffffffffffffffffffffffff\n        /* \"#utility.yul\":6706:6715   */\n      dup3\n        /* \"#utility.yul\":6687:6784   */\n      tag_64\n      jump\t// in\n    tag_150:\n        /* \"#utility.yul\":6805:6844   */\n      tag_151\n        /* \"#utility.yul\":6835:6843   */\n      dup7\n        /* \"#utility.yul\":6824:6833   */\n      dup4\n        /* \"#utility.yul\":6805:6844   */\n      tag_64\n      jump\t// in\n    tag_151:\n        /* \"#utility.yul\":6793:6844   */\n      swap6\n      pop\n        /* \"#utility.yul\":6877:6881   */\n      dup1\n        /* \"#utility.yul\":6873:6882   */\n      not\n        /* \"#utility.yul\":6866:6871   */\n      dup5\n        /* \"#utility.yul\":6862:6883   */\n      and\n        /* \"#utility.yul\":6853:6883   */\n      swap4\n      pop\n        /* \"#utility.yul\":6926:6930   */\n      dup1\n        /* \"#utility.yul\":6916:6924   */\n      dup7\n        /* \"#utility.yul\":6912:6931   */\n      and\n        /* \"#utility.yul\":6905:6910   */\n      dup5\n        /* \"#utility.yul\":6902:6932   */\n      or\n        /* \"#utility.yul\":6892:6932   */\n      swap3\n      pop\n        /* \"#utility.yul\":6621:6938   */\n      pop\n      pop\n        /* \"#utility.yul\":6545:6938   */\n      swap4\n      swap3\n      pop\n      pop\n      pop\n      jump\t// out\n        /* \"#utility.yul\":6944:7021   */\n    tag_66:\n        /* \"#utility.yul\":6981:6988   */\n      0x00\n        /* \"#utility.yul\":7010:7015   */\n      dup2\n        /* \"#utility.yul\":6999:7015   */\n      swap1\n      pop\n        /* \"#utility.yul\":6944:7021   */\n      swap2\n      swap1\n      pop\n      jump\t// out\n        /* \"#utility.yul\":7027:7087   */\n    tag_67:\n        /* \"#utility.yul\":7055:7058   */\n      0x00\n        /* \"#utility.yul\":7076:7081   */\n      dup2\n        /* \"#utility.yul\":7069:7081   */\n      swap1\n      pop\n        /* \"#utility.yul\":7027:7087   */\n      swap2\n      swap1\n      pop\n      jump\t// out\n        /* \"#utility.yul\":7093:7235   */\n    tag_68:\n        /* \"#utility.yul\":7143:7152   */\n      0x00\n        /* \"#utility.yul\":7176:7229   */\n      tag_155\n        /* \"#utility.yul\":7194:7228   */\n      tag_156\n        /* \"#utility.yul\":7203:7227   */\n      tag_157\n        /* \"#utility.yul\":7221:7226   */\n      dup5\n        /* \"#utility.yul\":7203:7227   */\n      tag_66\n      jump\t// in\n    tag_157:\n        /* \"#utility.yul\":7194:7228   */\n      tag_67\n      jump\t// in\n    tag_156:\n        /* \"#utility.yul\":7176:7229   */\n      tag_66\n      jump\t// in\n    tag_155:\n        /* \"#utility.yul\":7163:7229   */\n      swap1\n      pop\n        /* \"#utility.yul\":7093:7235   */\n      swap2\n      swap1\n      pop\n      jump\t// out\n        /* \"#utility.yul\":7241:7316   */\n    tag_69:\n        /* \"#utility.yul\":7284:7287   */\n      0x00\n        /* \"#utility.yul\":7305:7310   */\n      dup2\n        /* \"#utility.yul\":7298:7310   */\n      swap1\n      pop\n        /* \"#utility.yul\":7241:7316   */\n      swap2\n      swap1\n      pop\n      jump\t// out\n        /* \"#utility.yul\":7322:7591   */\n    tag_70:\n        /* \"#utility.yul\":7432:7471   */\n      tag_160\n        /* \"#utility.yul\":7463:7470   */\n      dup4\n        /* \"#utility.yul\":7432:7471   */\n      tag_68\n      jump\t// in\n    tag_160:\n        /* \"#utility.yul\":7493:7584   */\n      tag_161\n        /* \"#utility.yul\":7542:7583   */\n      tag_162\n        /* \"#utility.yul\":7566:7582   */\n      dup3\n        /* \"#utility.yul\":7542:7583   */\n      tag_69\n      jump\t// in\n    tag_162:\n        /* \"#utility.yul\":7534:7540   */\n      dup5\n        /* \"#utility.yul\":7527:7531   */\n      dup5\n        /* \"#utility.yul\":7521:7532   */\n      sload\n        /* \"#utility.yul\":7493:7584   */\n      tag_65\n      jump\t// in\n    tag_161:\n        /* \"#utility.yul\":7487:7491   */\n      dup3\n        /* \"#utility.yul\":7480:7585   */\n      sstore\n        /* \"#utility.yul\":7398:7591   */\n      pop\n        /* \"#utility.yul\":7322:7591   */\n      pop\n      pop\n      pop\n      jump\t// out\n        /* \"#utility.yul\":7597:7670   */\n    tag_71:\n        /* \"#utility.yul\":7642:7645   */\n      0x00\n        /* \"#utility.yul\":7597:7670   */\n      swap1\n      jump\t// out\n        /* \"#utility.yul\":7676:7865   */\n    tag_72:\n        /* \"#utility.yul\":7753:7785   */\n      tag_165\n      tag_71\n      jump\t// in\n    tag_165:\n        /* \"#utility.yul\":7794:7859   */\n      tag_166\n        /* \"#utility.yul\":7852:7858   */\n      dup2\n        /* \"#utility.yul\":7844:7850   */\n      dup5\n        /* \"#utility.yul\":7838:7842   */\n      dup5\n        /* \"#utility.yul\":7794:7859   */\n      tag_70\n      jump\t// in\n    tag_166:\n        /* \"#utility.yul\":7729:7865   */\n      pop\n        /* \"#utility.yul\":7676:7865   */\n      pop\n      pop\n      jump\t// out\n        /* \"#utility.yul\":7871:8057   */\n    tag_73:\n        /* \"#utility.yul\":7931:8051   */\n    tag_168:\n        /* \"#utility.yul\":7948:7951   */\n      dup2\n        /* \"#utility.yul\":7941:7946   */\n      dup2\n        /* \"#utility.yul\":7938:7952   */\n      lt\n        /* \"#utility.yul\":7931:8051   */\n      iszero\n      tag_170\n      jumpi\n        /* \"#utility.yul\":8002:8041   */\n      tag_171\n        /* \"#utility.yul\":8039:8040   */\n      0x00\n        /* \"#utility.yul\":8032:8037   */\n      dup3\n        /* \"#utility.yul\":8002:8041   */\n      tag_72\n      jump\t// in\n    tag_171:\n        /* \"#utility.yul\":7975:7976   */\n      0x01\n        /* \"#utility.yul\":7968:7973   */\n      dup2\n        /* \"#utility.yul\":7964:7977   */\n      add\n        /* \"#utility.yul\":7955:7977   */\n      swap1\n      pop\n        /* \"#utility.yul\":7931:8051   */\n      jump(tag_168)\n    tag_170:\n        /* \"#utility.yul\":7871:8057   */\n      pop\n      pop\n      jump\t// out\n        /* \"#utility.yul\":8063:8606   */\n    tag_74:\n        /* \"#utility.yul\":8164:8166   */\n      0x1f\n        /* \"#utility.yul\":8159:8162   */\n      dup3\n        /* \"#utility.yul\":8156:8167   */\n      gt\n        /* \"#utility.yul\":8153:8599   */\n      iszero\n      tag_173\n      jumpi\n        /* \"#utility.yul\":8198:8236   */\n      tag_174\n        /* \"#utility.yul\":8230:8235   */\n      dup2\n        /* \"#utility.yul\":8198:8236   */\n      tag_62\n      jump\t// in\n    tag_174:\n        /* \"#utility.yul\":8282:8311   */\n      tag_175\n        /* \"#utility.yul\":8300:8310   */\n      dup5\n        /* \"#utility.yul\":8282:8311   */\n      tag_63\n      jump\t// in\n    tag_175:\n        /* \"#utility.yul\":8272:8280   */\n      dup2\n        /* \"#utility.yul\":8268:8312   */\n      add\n        /* \"#utility.yul\":8465:8467   */\n      0x20\n        /* \"#utility.yul\":8453:8463   */\n      dup6\n        /* \"#utility.yul\":8450:8468   */\n      lt\n        /* \"#utility.yul\":8447:8496   */\n      iszero\n      tag_176\n      jumpi\n        /* \"#utility.yul\":8486:8494   */\n      dup2\n        /* \"#utility.yul\":8471:8494   */\n      swap1\n      pop\n        /* \"#utility.yul\":8447:8496   */\n    tag_176:\n        /* \"#utility.yul\":8509:8589   */\n      tag_177\n        /* \"#utility.yul\":8565:8587   */\n      tag_178\n        /* \"#utility.yul\":8583:8586   */\n      dup6\n        /* \"#utility.yul\":8565:8587   */\n      tag_63\n      jump\t// in\n    tag_178:\n        /* \"#utility.yul\":8555:8563   */\n      dup4\n        /* \"#utility.yul\":8551:8588   */\n      add\n        /* \"#utility.yul\":8538:8549   */\n      dup3\n        /* \"#utility.yul\":8509:8589   */\n      tag_73\n      jump\t// in\n    tag_177:\n        /* \"#utility.yul\":8168:8599   */\n      pop\n      pop\n        /* \"#utility.yul\":8153:8599   */\n    tag_173:\n        /* \"#utility.yul\":8063:8606   */\n      pop\n      pop\n      pop\n      jump\t// out\n        /* \"#utility.yul\":8612:8729   */\n    tag_75:\n        /* \"#utility.yul\":8666:8674   */\n      0x00\n        /* \"#utility.yul\":8716:8721   */\n      dup3\n        /* \"#utility.yul\":8710:8714   */\n      dup3\n        /* \"#utility.yul\":8706:8722   */\n      shr\n        /* \"#utility.yul\":8685:8722   */\n      swap1\n      pop\n        /* \"#utility.yul\":8612:8729   */\n      swap3\n      swap2\n      pop\n      pop\n      jump\t// out\n        /* \"#utility.yul\":8735:8904   */\n    tag_76:\n        /* \"#utility.yul\":8779:8785   */\n      0x00\n        /* \"#utility.yul\":8812:8863   */\n      tag_181\n        /* \"#utility.yul\":8860:8861   */\n      0x00\n        /* \"#utility.yul\":8856:8862   */\n      not\n        /* \"#utility.yul\":8848:8853   */\n      dup5\n        /* \"#utility.yul\":8845:8846   */\n      0x08\n        /* \"#utility.yul\":8841:8854   */\n      mul\n        /* \"#utility.yul\":8812:8863   */\n      tag_75\n      jump\t// in\n    tag_181:\n        /* \"#utility.yul\":8808:8864   */\n      not\n        /* \"#utility.yul\":8893:8897   */\n      dup1\n        /* \"#utility.yul\":8887:8891   */\n      dup4\n        /* \"#utility.yul\":8883:8898   */\n      and\n        /* \"#utility.yul\":8873:8898   */\n      swap2\n      pop\n        /* \"#utility.yul\":8786:8904   */\n      pop\n        /* \"#utility.yul\":8735:8904   */\n      swap3\n      swap2\n      pop\n      pop\n      jump\t// out\n        /* \"#utility.yul\":8909:9204   */\n    tag_77:\n        /* \"#utility.yul\":8985:8989   */\n      0x00\n        /* \"#utility.yul\":9131:9160   */\n      tag_183\n        /* \"#utility.yul\":9156:9159   */\n      dup4\n        /* \"#utility.yul\":9150:9154   */\n      dup4\n        /* \"#utility.yul\":9131:9160   */\n      tag_76\n      jump\t// in\n    tag_183:\n        /* \"#utility.yul\":9123:9160   */\n      swap2\n      pop\n        /* \"#utility.yul\":9193:9196   */\n      dup3\n        /* \"#utility.yul\":9190:9191   */\n      0x02\n        /* \"#utility.yul\":9186:9197   */\n      mul\n        /* \"#utility.yul\":9180:9184   */\n      dup3\n        /* \"#utility.yul\":9177:9198   */\n      or\n        /* \"#utility.yul\":9169:9198   */\n      swap1\n      pop\n        /* \"#utility.yul\":8909:9204   */\n      swap3\n      swap2\n      pop\n      pop\n      jump\t// out\n        /* \"#utility.yul\":9209:10604   */\n    tag_25:\n        /* \"#utility.yul\":9326:9363   */\n      tag_185\n        /* \"#utility.yul\":9359:9362   */\n      dup3\n        /* \"#utility.yul\":9326:9363   */\n      tag_54\n      jump\t// in\n    tag_185:\n        /* \"#utility.yul\":9428:9446   */\n      0xffffffffffffffff\n        /* \"#utility.yul\":9420:9426   */\n      dup2\n        /* \"#utility.yul\":9417:9447   */\n      gt\n        /* \"#utility.yul\":9414:9470   */\n      iszero\n      tag_186\n      jumpi\n        /* \"#utility.yul\":9450:9468   */\n      tag_187\n      tag_44\n      jump\t// in\n    tag_187:\n        /* \"#utility.yul\":9414:9470   */\n    tag_186:\n        /* \"#utility.yul\":9494:9532   */\n      tag_188\n        /* \"#utility.yul\":9526:9530   */\n      dup3\n        /* \"#utility.yul\":9520:9531   */\n      sload\n        /* \"#utility.yul\":9494:9532   */\n      tag_28\n      jump\t// in\n    tag_188:\n        /* \"#utility.yul\":9579:9646   */\n      tag_189\n        /* \"#utility.yul\":9639:9645   */\n      dup3\n        /* \"#utility.yul\":9631:9637   */\n      dup3\n        /* \"#utility.yul\":9625:9629   */\n      dup6\n        /* \"#utility.yul\":9579:9646   */\n      tag_74\n      jump\t// in\n    tag_189:\n        /* \"#utility.yul\":9673:9674   */\n      0x00\n        /* \"#utility.yul\":9697:9701   */\n      0x20\n        /* \"#utility.yul\":9684:9701   */\n      swap1\n      pop\n        /* \"#utility.yul\":9729:9731   */\n      0x1f\n        /* \"#utility.yul\":9721:9727   */\n      dup4\n        /* \"#utility.yul\":9718:9732   */\n      gt\n        /* \"#utility.yul\":9746:9747   */\n      0x01\n        /* \"#utility.yul\":9741:10359   */\n      dup2\n      eq\n      tag_191\n      jumpi\n        /* \"#utility.yul\":10403:10404   */\n      0x00\n        /* \"#utility.yul\":10420:10426   */\n      dup5\n        /* \"#utility.yul\":10417:10494   */\n      iszero\n      tag_192\n      jumpi\n        /* \"#utility.yul\":10469:10478   */\n      dup3\n        /* \"#utility.yul\":10464:10467   */\n      dup8\n        /* \"#utility.yul\":10460:10479   */\n      add\n        /* \"#utility.yul\":10454:10480   */\n      mload\n        /* \"#utility.yul\":10445:10480   */\n      swap1\n      pop\n        /* \"#utility.yul\":10417:10494   */\n    tag_192:\n        /* \"#utility.yul\":10520:10587   */\n      tag_193\n        /* \"#utility.yul\":10580:10586   */\n      dup6\n        /* \"#utility.yul\":10573:10578   */\n      dup3\n        /* \"#utility.yul\":10520:10587   */\n      tag_77\n      jump\t// in\n    tag_193:\n        /* \"#utility.yul\":10514:10518   */\n      dup7\n        /* \"#utility.yul\":10507:10588   */\n      sstore\n        /* \"#utility.yul\":10376:10598   */\n      pop\n        /* \"#utility.yul\":9711:10598   */\n      jump(tag_190)\n        /* \"#utility.yul\":9741:10359   */\n    tag_191:\n        /* \"#utility.yul\":9793:9797   */\n      0x1f\n        /* \"#utility.yul\":9789:9798   */\n      not\n        /* \"#utility.yul\":9781:9787   */\n      dup5\n        /* \"#utility.yul\":9777:9799   */\n      and\n        /* \"#utility.yul\":9827:9864   */\n      tag_194\n        /* \"#utility.yul\":9859:9863   */\n      dup7\n        /* \"#utility.yul\":9827:9864   */\n      tag_62\n      jump\t// in\n    tag_194:\n        /* \"#utility.yul\":9886:9887   */\n      0x00\n        /* \"#utility.yul\":9900:10108   */\n    tag_195:\n        /* \"#utility.yul\":9914:9921   */\n      dup3\n        /* \"#utility.yul\":9911:9912   */\n      dup2\n        /* \"#utility.yul\":9908:9922   */\n      lt\n        /* \"#utility.yul\":9900:10108   */\n      iszero\n      tag_197\n      jumpi\n        /* \"#utility.yul\":9993:10002   */\n      dup5\n        /* \"#utility.yul\":9988:9991   */\n      dup10\n        /* \"#utility.yul\":9984:10003   */\n      add\n        /* \"#utility.yul\":9978:10004   */\n      mload\n        /* \"#utility.yul\":9970:9976   */\n      dup3\n        /* \"#utility.yul\":9963:10005   */\n      sstore\n        /* \"#utility.yul\":10044:10045   */\n      0x01\n        /* \"#utility.yul\":10036:10042   */\n      dup3\n        /* \"#utility.yul\":10032:10046   */\n      add\n        /* \"#utility.yul\":10022:10046   */\n      swap2\n      pop\n        /* \"#utility.yul\":10091:10093   */\n      0x20\n        /* \"#utility.yul\":10080:10089   */\n      dup6\n        /* \"#utility.yul\":10076:10094   */\n      add\n        /* \"#utility.yul\":10063:10094   */\n      swap5\n      pop\n        /* \"#utility.yul\":9937:9941   */\n      0x20\n        /* \"#utility.yul\":9934:9935   */\n      dup2\n        /* \"#utility.yul\":9930:9942   */\n      add\n        /* \"#utility.yul\":9925:9942   */\n      swap1\n      pop\n        /* \"#utility.yul\":9900:10108   */\n      jump(tag_195)\n    tag_197:\n        /* \"#utility.yul\":10136:10142   */\n      dup7\n        /* \"#utility.yul\":10127:10134   */\n      dup4\n        /* \"#utility.yul\":10124:10143   */\n      lt\n        /* \"#utility.yul\":10121:10300   */\n      iszero\n      tag_198\n      jumpi\n        /* \"#utility.yul\":10194:10203   */\n      dup5\n        /* \"#utility.yul\":10189:10192   */\n      dup10\n        /* \"#utility.yul\":10185:10204   */\n      add\n        /* \"#utility.yul\":10179:10205   */\n      mload\n        /* \"#utility.yul\":10237:10285   */\n      tag_199\n        /* \"#utility.yul\":10279:10283   */\n      0x1f\n        /* \"#utility.yul\":10271:10277   */\n      dup10\n        /* \"#utility.yul\":10267:10284   */\n      and\n        /* \"#utility.yul\":10256:10265   */\n      dup3\n        /* \"#utility.yul\":10237:10285   */\n      tag_76\n      jump\t// in\n    tag_199:\n        /* \"#utility.yul\":10229:10235   */\n      dup4\n        /* \"#utility.yul\":10222:10286   */\n      sstore\n        /* \"#utility.yul\":10144:10300   */\n      pop\n        /* \"#utility.yul\":10121:10300   */\n    tag_198:\n        /* \"#utility.yul\":10346:10347   */\n      0x01\n        /* \"#utility.yul\":10342:10343   */\n      0x02\n        /* \"#utility.yul\":10334:10340   */\n      dup9\n        /* \"#utility.yul\":10330:10344   */\n      mul\n        /* \"#utility.yul\":10326:10348   */\n      add\n        /* \"#utility.yul\":10320:10324   */\n      dup9\n        /* \"#utility.yul\":10313:10349   */\n      sstore\n        /* \"#utility.yul\":9748:10359   */\n      pop\n      pop\n      pop\n        /* \"#utility.yul\":9711:10598   */\n    tag_190:\n      pop\n        /* \"#utility.yul\":9301:10604   */\n      pop\n      pop\n      pop\n        /* \"#utility.yul\":9209:10604   */\n      pop\n      pop\n      jump\t// out\n\n    auxdata: 0xa2646970667358221220b6b876cdb422c631e53ea21d86d525e3661e34139e581e24c48e39ad9533687864736f6c634300081a0033\n}\n",
				"bytecode": {
					"linkReferences": {},
					"object": "6080604052348015600e575f80fd5b506108118061001c5f395ff3fe608060405234801561000f575f80fd5b506004361061004a575f3560e01c806325f3f9281461004e5780633b0c197e1461006a5780634a79d50c14610089578063a035b1fe146100a7575b5f80fd5b610068600480360381019061006391906103bd565b6100c5565b005b6100726100f2565b604051610080929190610493565b60405180910390f35b61009161019d565b60405161009e91906104c1565b60405180910390f35b6100af610228565b6040516100bc91906104f0565b60405180910390f35b815f90816100d3919061070c565b508060015f6101000a81548160ff021916908360ff1602179055505050565b60605f8060015f9054906101000a900460ff1681805461011190610536565b80601f016020809104026020016040519081016040528092919081815260200182805461013d90610536565b80156101885780601f1061015f57610100808354040283529160200191610188565b820191905f5260205f20905b81548152906001019060200180831161016b57829003601f168201915b505050505091508060ff169050915091509091565b5f80546101a990610536565b80601f01602080910402602001604051908101604052809291908181526020018280546101d590610536565b80156102205780601f106101f757610100808354040283529160200191610220565b820191905f5260205f20905b81548152906001019060200180831161020357829003601f168201915b505050505081565b60015f9054906101000a900460ff1681565b5f604051905090565b5f80fd5b5f80fd5b5f80fd5b5f80fd5b5f601f19601f8301169050919050565b7f4e487b71000000000000000000000000000000000000000000000000000000005f52604160045260245ffd5b61029982610253565b810181811067ffffffffffffffff821117156102b8576102b7610263565b5b80604052505050565b5f6102ca61023a565b90506102d68282610290565b919050565b5f67ffffffffffffffff8211156102f5576102f4610263565b5b6102fe82610253565b9050602081019050919050565b828183375f83830152505050565b5f61032b610326846102db565b6102c1565b9050828152602081018484840111156103475761034661024f565b5b61035284828561030b565b509392505050565b5f82601f83011261036e5761036d61024b565b5b813561037e848260208601610319565b91505092915050565b5f60ff82169050919050565b61039c81610387565b81146103a6575f80fd5b50565b5f813590506103b781610393565b92915050565b5f80604083850312156103d3576103d2610243565b5b5f83013567ffffffffffffffff8111156103f0576103ef610247565b5b6103fc8582860161035a565b925050602061040d858286016103a9565b9150509250929050565b5f81519050919050565b5f82825260208201905092915050565b8281835e5f83830152505050565b5f61044982610417565b6104538185610421565b9350610463818560208601610431565b61046c81610253565b840191505092915050565b5f61ffff82169050919050565b61048d81610477565b82525050565b5f6040820190508181035f8301526104ab818561043f565b90506104ba6020830184610484565b9392505050565b5f6020820190508181035f8301526104d9818461043f565b905092915050565b6104ea81610387565b82525050565b5f6020820190506105035f8301846104e1565b92915050565b7f4e487b71000000000000000000000000000000000000000000000000000000005f52602260045260245ffd5b5f600282049050600182168061054d57607f821691505b6020821081036105605761055f610509565b5b50919050565b5f819050815f5260205f209050919050565b5f6020601f8301049050919050565b5f82821b905092915050565b5f600883026105c27fffffffffffffffffffffffffffffffffffffffffffffffffffffffffffffffff82610587565b6105cc8683610587565b95508019841693508086168417925050509392505050565b5f819050919050565b5f819050919050565b5f61061061060b610606846105e4565b6105ed565b6105e4565b9050919050565b5f819050919050565b610629836105f6565b61063d61063582610617565b848454610593565b825550505050565b5f90565b610651610645565b61065c818484610620565b505050565b5b8181101561067f576106745f82610649565b600181019050610662565b5050565b601f8211156106c45761069581610566565b61069e84610578565b810160208510156106ad578190505b6106c16106b985610578565b830182610661565b50505b505050565b5f82821c905092915050565b5f6106e45f19846008026106c9565b1980831691505092915050565b5f6106fc83836106d5565b9150826002028217905092915050565b61071582610417565b67ffffffffffffffff81111561072e5761072d610263565b5b6107388254610536565b610743828285610683565b5f60209050601f831160018114610774575f8415610762578287015190505b61076c85826106f1565b8655506107d3565b601f19841661078286610566565b5f5b828110156107a957848901518255600182019150602085019450602081019050610784565b868310156107c657848901516107c2601f8916826106d5565b8355505b6001600288020188555050505b50505050505056fea2646970667358221220b6b876cdb422c631e53ea21d86d525e3661e34139e581e24c48e39ad9533687864736f6c634300081a0033",
					"opcodes": "PUSH1 0x80 PUSH1 0x40 MSTORE CALLVALUE DUP1 ISZERO PUSH1 0xE JUMPI PUSH0 DUP1 REVERT JUMPDEST POP PUSH2 0x811 DUP1 PUSH2 0x1C PUSH0 CODECOPY PUSH0 RETURN INVALID PUSH1 0x80 PUSH1 0x40 MSTORE CALLVALUE DUP1 ISZERO PUSH2 0xF JUMPI PUSH0 DUP1 REVERT JUMPDEST POP PUSH1 0x4 CALLDATASIZE LT PUSH2 0x4A JUMPI PUSH0 CALLDATALOAD PUSH1 0xE0 SHR DUP1 PUSH4 0x25F3F928 EQ PUSH2 0x4E JUMPI DUP1 PUSH4 0x3B0C197E EQ PUSH2 0x6A JUMPI DUP1 PUSH4 0x4A79D50C EQ PUSH2 0x89 JUMPI DUP1 PUSH4 0xA035B1FE EQ PUSH2 0xA7 JUMPI JUMPDEST PUSH0 DUP1 REVERT JUMPDEST PUSH2 0x68 PUSH1 0x4 DUP1 CALLDATASIZE SUB DUP2 ADD SWAP1 PUSH2 0x63 SWAP2 SWAP1 PUSH2 0x3BD JUMP JUMPDEST PUSH2 0xC5 JUMP JUMPDEST STOP JUMPDEST PUSH2 0x72 PUSH2 0xF2 JUMP JUMPDEST PUSH1 0x40 MLOAD PUSH2 0x80 SWAP3 SWAP2 SWAP1 PUSH2 0x493 JUMP JUMPDEST PUSH1 0x40 MLOAD DUP1 SWAP2 SUB SWAP1 RETURN JUMPDEST PUSH2 0x91 PUSH2 0x19D JUMP JUMPDEST PUSH1 0x40 MLOAD PUSH2 0x9E SWAP2 SWAP1 PUSH2 0x4C1 JUMP JUMPDEST PUSH1 0x40 MLOAD DUP1 SWAP2 SUB SWAP1 RETURN JUMPDEST PUSH2 0xAF PUSH2 0x228 JUMP JUMPDEST PUSH1 0x40 MLOAD PUSH2 0xBC SWAP2 SWAP1 PUSH2 0x4F0 JUMP JUMPDEST PUSH1 0x40 MLOAD DUP1 SWAP2 SUB SWAP1 RETURN JUMPDEST DUP2 PUSH0 SWAP1 DUP2 PUSH2 0xD3 SWAP2 SWAP1 PUSH2 0x70C JUMP JUMPDEST POP DUP1 PUSH1 0x1 PUSH0 PUSH2 0x100 EXP DUP2 SLOAD DUP2 PUSH1 0xFF MUL NOT AND SWAP1 DUP4 PUSH1 0xFF AND MUL OR SWAP1 SSTORE POP POP POP JUMP JUMPDEST PUSH1 0x60 PUSH0 DUP1 PUSH1 0x1 PUSH0 SWAP1 SLOAD SWAP1 PUSH2 0x100 EXP SWAP1 DIV PUSH1 0xFF AND DUP2 DUP1 SLOAD PUSH2 0x111 SWAP1 PUSH2 0x536 JUMP JUMPDEST DUP1 PUSH1 0x1F ADD PUSH1 0x20 DUP1 SWAP2 DIV MUL PUSH1 0x20 ADD PUSH1 0x40 MLOAD SWAP1 DUP2 ADD PUSH1 0x40 MSTORE DUP1 SWAP3 SWAP2 SWAP1 DUP2 DUP2 MSTORE PUSH1 0x20 ADD DUP3 DUP1 SLOAD PUSH2 0x13D SWAP1 PUSH2 0x536 JUMP JUMPDEST DUP1 ISZERO PUSH2 0x188 JUMPI DUP1 PUSH1 0x1F LT PUSH2 0x15F JUMPI PUSH2 0x100 DUP1 DUP4 SLOAD DIV MUL DUP4 MSTORE SWAP2 PUSH1 0x20 ADD SWAP2 PUSH2 0x188 JUMP JUMPDEST DUP3 ADD SWAP2 SWAP1 PUSH0 MSTORE PUSH1 0x20 PUSH0 KECCAK256 SWAP1 JUMPDEST DUP2 SLOAD DUP2 MSTORE SWAP1 PUSH1 0x1 ADD SWAP1 PUSH1 0x20 ADD DUP1 DUP4 GT PUSH2 0x16B JUMPI DUP3 SWAP1 SUB PUSH1 0x1F AND DUP3 ADD SWAP2 JUMPDEST POP POP POP POP POP SWAP2 POP DUP1 PUSH1 0xFF AND SWAP1 POP SWAP2 POP SWAP2 POP SWAP1 SWAP2 JUMP JUMPDEST PUSH0 DUP1 SLOAD PUSH2 0x1A9 SWAP1 PUSH2 0x536 JUMP JUMPDEST DUP1 PUSH1 0x1F ADD PUSH1 0x20 DUP1 SWAP2 DIV MUL PUSH1 0x20 ADD PUSH1 0x40 MLOAD SWAP1 DUP2 ADD PUSH1 0x40 MSTORE DUP1 SWAP3 SWAP2 SWAP1 DUP2 DUP2 MSTORE PUSH1 0x20 ADD DUP3 DUP1 SLOAD PUSH2 0x1D5 SWAP1 PUSH2 0x536 JUMP JUMPDEST DUP1 ISZERO PUSH2 0x220 JUMPI DUP1 PUSH1 0x1F LT PUSH2 0x1F7 JUMPI PUSH2 0x100 DUP1 DUP4 SLOAD DIV MUL DUP4 MSTORE SWAP2 PUSH1 0x20 ADD SWAP2 PUSH2 0x220 JUMP JUMPDEST DUP3 ADD SWAP2 SWAP1 PUSH0 MSTORE PUSH1 0x20 PUSH0 KECCAK256 SWAP1 JUMPDEST DUP2 SLOAD DUP2 MSTORE SWAP1 PUSH1 0x1 ADD SWAP1 PUSH1 0x20 ADD DUP1 DUP4 GT PUSH2 0x203 JUMPI DUP3 SWAP1 SUB PUSH1 0x1F AND DUP3 ADD SWAP2 JUMPDEST POP POP POP POP POP DUP2 JUMP JUMPDEST PUSH1 0x1 PUSH0 SWAP1 SLOAD SWAP1 PUSH2 0x100 EXP SWAP1 DIV PUSH1 0xFF AND DUP2 JUMP JUMPDEST PUSH0 PUSH1 0x40 MLOAD SWAP1 POP SWAP1 JUMP JUMPDEST PUSH0 DUP1 REVERT JUMPDEST PUSH0 DUP1 REVERT JUMPDEST PUSH0 DUP1 REVERT JUMPDEST PUSH0 DUP1 REVERT JUMPDEST PUSH0 PUSH1 0x1F NOT PUSH1 0x1F DUP4 ADD AND SWAP1 POP SWAP2 SWAP1 POP JUMP JUMPDEST PUSH32 0x4E487B7100000000000000000000000000000000000000000000000000000000 PUSH0 MSTORE PUSH1 0x41 PUSH1 0x4 MSTORE PUSH1 0x24 PUSH0 REVERT JUMPDEST PUSH2 0x299 DUP3 PUSH2 0x253 JUMP JUMPDEST DUP2 ADD DUP2 DUP2 LT PUSH8 0xFFFFFFFFFFFFFFFF DUP3 GT OR ISZERO PUSH2 0x2B8 JUMPI PUSH2 0x2B7 PUSH2 0x263 JUMP JUMPDEST JUMPDEST DUP1 PUSH1 0x40 MSTORE POP POP POP JUMP JUMPDEST PUSH0 PUSH2 0x2CA PUSH2 0x23A JUMP JUMPDEST SWAP1 POP PUSH2 0x2D6 DUP3 DUP3 PUSH2 0x290 JUMP JUMPDEST SWAP2 SWAP1 POP JUMP JUMPDEST PUSH0 PUSH8 0xFFFFFFFFFFFFFFFF DUP3 GT ISZERO PUSH2 0x2F5 JUMPI PUSH2 0x2F4 PUSH2 0x263 JUMP JUMPDEST JUMPDEST PUSH2 0x2FE DUP3 PUSH2 0x253 JUMP JUMPDEST SWAP1 POP PUSH1 0x20 DUP2 ADD SWAP1 POP SWAP2 SWAP1 POP JUMP JUMPDEST DUP3 DUP2 DUP4 CALLDATACOPY PUSH0 DUP4 DUP4 ADD MSTORE POP POP POP JUMP JUMPDEST PUSH0 PUSH2 0x32B PUSH2 0x326 DUP5 PUSH2 0x2DB JUMP JUMPDEST PUSH2 0x2C1 JUMP JUMPDEST SWAP1 POP DUP3 DUP2 MSTORE PUSH1 0x20 DUP2 ADD DUP5 DUP5 DUP5 ADD GT ISZERO PUSH2 0x347 JUMPI PUSH2 0x346 PUSH2 0x24F JUMP JUMPDEST JUMPDEST PUSH2 0x352 DUP5 DUP3 DUP6 PUSH2 0x30B JUMP JUMPDEST POP SWAP4 SWAP3 POP POP POP JUMP JUMPDEST PUSH0 DUP3 PUSH1 0x1F DUP4 ADD SLT PUSH2 0x36E JUMPI PUSH2 0x36D PUSH2 0x24B JUMP JUMPDEST JUMPDEST DUP2 CALLDATALOAD PUSH2 0x37E DUP5 DUP3 PUSH1 0x20 DUP7 ADD PUSH2 0x319 JUMP JUMPDEST SWAP2 POP POP SWAP3 SWAP2 POP POP JUMP JUMPDEST PUSH0 PUSH1 0xFF DUP3 AND SWAP1 POP SWAP2 SWAP1 POP JUMP JUMPDEST PUSH2 0x39C DUP2 PUSH2 0x387 JUMP JUMPDEST DUP2 EQ PUSH2 0x3A6 JUMPI PUSH0 DUP1 REVERT JUMPDEST POP JUMP JUMPDEST PUSH0 DUP2 CALLDATALOAD SWAP1 POP PUSH2 0x3B7 DUP2 PUSH2 0x393 JUMP JUMPDEST SWAP3 SWAP2 POP POP JUMP JUMPDEST PUSH0 DUP1 PUSH1 0x40 DUP4 DUP6 SUB SLT ISZERO PUSH2 0x3D3 JUMPI PUSH2 0x3D2 PUSH2 0x243 JUMP JUMPDEST JUMPDEST PUSH0 DUP4 ADD CALLDATALOAD PUSH8 0xFFFFFFFFFFFFFFFF DUP2 GT ISZERO PUSH2 0x3F0 JUMPI PUSH2 0x3EF PUSH2 0x247 JUMP JUMPDEST JUMPDEST PUSH2 0x3FC DUP6 DUP3 DUP7 ADD PUSH2 0x35A JUMP JUMPDEST SWAP3 POP POP PUSH1 0x20 PUSH2 0x40D DUP6 DUP3 DUP7 ADD PUSH2 0x3A9 JUMP JUMPDEST SWAP2 POP POP SWAP3 POP SWAP3 SWAP1 POP JUMP JUMPDEST PUSH0 DUP2 MLOAD SWAP1 POP SWAP2 SWAP1 POP JUMP JUMPDEST PUSH0 DUP3 DUP3 MSTORE PUSH1 0x20 DUP3 ADD SWAP1 POP SWAP3 SWAP2 POP POP JUMP JUMPDEST DUP3 DUP2 DUP4 MCOPY PUSH0 DUP4 DUP4 ADD MSTORE POP POP POP JUMP JUMPDEST PUSH0 PUSH2 0x449 DUP3 PUSH2 0x417 JUMP JUMPDEST PUSH2 0x453 DUP2 DUP6 PUSH2 0x421 JUMP JUMPDEST SWAP4 POP PUSH2 0x463 DUP2 DUP6 PUSH1 0x20 DUP7 ADD PUSH2 0x431 JUMP JUMPDEST PUSH2 0x46C DUP2 PUSH2 0x253 JUMP JUMPDEST DUP5 ADD SWAP2 POP POP SWAP3 SWAP2 POP POP JUMP JUMPDEST PUSH0 PUSH2 0xFFFF DUP3 AND SWAP1 POP SWAP2 SWAP1 POP JUMP JUMPDEST PUSH2 0x48D DUP2 PUSH2 0x477 JUMP JUMPDEST DUP3 MSTORE POP POP JUMP JUMPDEST PUSH0 PUSH1 0x40 DUP3 ADD SWAP1 POP DUP2 DUP2 SUB PUSH0 DUP4 ADD MSTORE PUSH2 0x4AB DUP2 DUP6 PUSH2 0x43F JUMP JUMPDEST SWAP1 POP PUSH2 0x4BA PUSH1 0x20 DUP4 ADD DUP5 PUSH2 0x484 JUMP JUMPDEST SWAP4 SWAP3 POP POP POP JUMP JUMPDEST PUSH0 PUSH1 0x20 DUP3 ADD SWAP1 POP DUP2 DUP2 SUB PUSH0 DUP4 ADD MSTORE PUSH2 0x4D9 DUP2 DUP5 PUSH2 0x43F JUMP JUMPDEST SWAP1 POP SWAP3 SWAP2 POP POP JUMP JUMPDEST PUSH2 0x4EA DUP2 PUSH2 0x387 JUMP JUMPDEST DUP3 MSTORE POP POP JUMP JUMPDEST PUSH0 PUSH1 0x20 DUP3 ADD SWAP1 POP PUSH2 0x503 PUSH0 DUP4 ADD DUP5 PUSH2 0x4E1 JUMP JUMPDEST SWAP3 SWAP2 POP POP JUMP JUMPDEST PUSH32 0x4E487B7100000000000000000000000000000000000000000000000000000000 PUSH0 MSTORE PUSH1 0x22 PUSH1 0x4 MSTORE PUSH1 0x24 PUSH0 REVERT JUMPDEST PUSH0 PUSH1 0x2 DUP3 DIV SWAP1 POP PUSH1 0x1 DUP3 AND DUP1 PUSH2 0x54D JUMPI PUSH1 0x7F DUP3 AND SWAP2 POP JUMPDEST PUSH1 0x20 DUP3 LT DUP2 SUB PUSH2 0x560 JUMPI PUSH2 0x55F PUSH2 0x509 JUMP JUMPDEST JUMPDEST POP SWAP2 SWAP1 POP JUMP JUMPDEST PUSH0 DUP2 SWAP1 POP DUP2 PUSH0 MSTORE PUSH1 0x20 PUSH0 KECCAK256 SWAP1 POP SWAP2 SWAP1 POP JUMP JUMPDEST PUSH0 PUSH1 0x20 PUSH1 0x1F DUP4 ADD DIV SWAP1 POP SWAP2 SWAP1 POP JUMP JUMPDEST PUSH0 DUP3 DUP3 SHL SWAP1 POP SWAP3 SWAP2 POP POP JUMP JUMPDEST PUSH0 PUSH1 0x8 DUP4 MUL PUSH2 0x5C2 PUSH32 0xFFFFFFFFFFFFFFFFFFFFFFFFFFFFFFFFFFFFFFFFFFFFFFFFFFFFFFFFFFFFFFFF DUP3 PUSH2 0x587 JUMP JUMPDEST PUSH2 0x5CC DUP7 DUP4 PUSH2 0x587 JUMP JUMPDEST SWAP6 POP DUP1 NOT DUP5 AND SWAP4 POP DUP1 DUP7 AND DUP5 OR SWAP3 POP POP POP SWAP4 SWAP3 POP POP POP JUMP JUMPDEST PUSH0 DUP2 SWAP1 POP SWAP2 SWAP1 POP JUMP JUMPDEST PUSH0 DUP2 SWAP1 POP SWAP2 SWAP1 POP JUMP JUMPDEST PUSH0 PUSH2 0x610 PUSH2 0x60B PUSH2 0x606 DUP5 PUSH2 0x5E4 JUMP JUMPDEST PUSH2 0x5ED JUMP JUMPDEST PUSH2 0x5E4 JUMP JUMPDEST SWAP1 POP SWAP2 SWAP1 POP JUMP JUMPDEST PUSH0 DUP2 SWAP1 POP SWAP2 SWAP1 POP JUMP JUMPDEST PUSH2 0x629 DUP4 PUSH2 0x5F6 JUMP JUMPDEST PUSH2 0x63D PUSH2 0x635 DUP3 PUSH2 0x617 JUMP JUMPDEST DUP5 DUP5 SLOAD PUSH2 0x593 JUMP JUMPDEST DUP3 SSTORE POP POP POP POP JUMP JUMPDEST PUSH0 SWAP1 JUMP JUMPDEST PUSH2 0x651 PUSH2 0x645 JUMP JUMPDEST PUSH2 0x65C DUP2 DUP5 DUP5 PUSH2 0x620 JUMP JUMPDEST POP POP POP JUMP JUMPDEST JUMPDEST DUP2 DUP2 LT ISZERO PUSH2 0x67F JUMPI PUSH2 0x674 PUSH0 DUP3 PUSH2 0x649 JUMP JUMPDEST PUSH1 0x1 DUP2 ADD SWAP1 POP PUSH2 0x662 JUMP JUMPDEST POP POP JUMP JUMPDEST PUSH1 0x1F DUP3 GT ISZERO PUSH2 0x6C4 JUMPI PUSH2 0x695 DUP2 PUSH2 0x566 JUMP JUMPDEST PUSH2 0x69E DUP5 PUSH2 0x578 JUMP JUMPDEST DUP2 ADD PUSH1 0x20 DUP6 LT ISZERO PUSH2 0x6AD JUMPI DUP2 SWAP1 POP JUMPDEST PUSH2 0x6C1 PUSH2 0x6B9 DUP6 PUSH2 0x578 JUMP JUMPDEST DUP4 ADD DUP3 PUSH2 0x661 JUMP JUMPDEST POP POP JUMPDEST POP POP POP JUMP JUMPDEST PUSH0 DUP3 DUP3 SHR SWAP1 POP SWAP3 SWAP2 POP POP JUMP JUMPDEST PUSH0 PUSH2 0x6E4 PUSH0 NOT DUP5 PUSH1 0x8 MUL PUSH2 0x6C9 JUMP JUMPDEST NOT DUP1 DUP4 AND SWAP2 POP POP SWAP3 SWAP2 POP POP JUMP JUMPDEST PUSH0 PUSH2 0x6FC DUP4 DUP4 PUSH2 0x6D5 JUMP JUMPDEST SWAP2 POP DUP3 PUSH1 0x2 MUL DUP3 OR SWAP1 POP SWAP3 SWAP2 POP POP JUMP JUMPDEST PUSH2 0x715 DUP3 PUSH2 0x417 JUMP JUMPDEST PUSH8 0xFFFFFFFFFFFFFFFF DUP2 GT ISZERO PUSH2 0x72E JUMPI PUSH2 0x72D PUSH2 0x263 JUMP JUMPDEST JUMPDEST PUSH2 0x738 DUP3 SLOAD PUSH2 0x536 JUMP JUMPDEST PUSH2 0x743 DUP3 DUP3 DUP6 PUSH2 0x683 JUMP JUMPDEST PUSH0 PUSH1 0x20 SWAP1 POP PUSH1 0x1F DUP4 GT PUSH1 0x1 DUP2 EQ PUSH2 0x774 JUMPI PUSH0 DUP5 ISZERO PUSH2 0x762 JUMPI DUP3 DUP8 ADD MLOAD SWAP1 POP JUMPDEST PUSH2 0x76C DUP6 DUP3 PUSH2 0x6F1 JUMP JUMPDEST DUP7 SSTORE POP PUSH2 0x7D3 JUMP JUMPDEST PUSH1 0x1F NOT DUP5 AND PUSH2 0x782 DUP7 PUSH2 0x566 JUMP JUMPDEST PUSH0 JUMPDEST DUP3 DUP2 LT ISZERO PUSH2 0x7A9 JUMPI DUP5 DUP10 ADD MLOAD DUP3 SSTORE PUSH1 0x1 DUP3 ADD SWAP2 POP PUSH1 0x20 DUP6 ADD SWAP5 POP PUSH1 0x20 DUP2 ADD SWAP1 POP PUSH2 0x784 JUMP JUMPDEST DUP7 DUP4 LT ISZERO PUSH2 0x7C6 JUMPI DUP5 DUP10 ADD MLOAD PUSH2 0x7C2 PUSH1 0x1F DUP10 AND DUP3 PUSH2 0x6D5 JUMP JUMPDEST DUP4 SSTORE POP JUMPDEST PUSH1 0x1 PUSH1 0x2 DUP9 MUL ADD DUP9 SSTORE POP POP POP JUMPDEST POP POP POP POP POP POP JUMP INVALID LOG2 PUSH5 0x6970667358 0x22 SLT KECCAK256 0xB6 0xB8 PUSH23 0xCDB422C631E53EA21D86D525E3661E34139E581E24C48E CODECOPY 0xAD SWAP6 CALLER PUSH9 0x7864736F6C63430008 BYTE STOP CALLER "
				},
				"gasEstimates": {
					"creation": {
						"codeDepositCost": "413000",
						"executionCost": "447",
						"totalCost": "413447"
					},
					"external": {
						"getBook()": "infinite",
						"price()": "2510",
						"setBook(string,uint8)": "infinite",
						"title()": "infinite"
					}
				},
				"methodIdentifiers": {
					"getBook()": "3b0c197e",
					"price()": "a035b1fe",
					"setBook(string,uint8)": "25f3f928",
					"title()": "4a79d50c"
				}
			},
			"storageLayout": {
				"storage": [
					{
						"astId": 3,
						"contract": "MyBooks.sol:myBook",
						"label": "title",
						"offset": 0,
						"slot": "0",
						"type": "t_string_storage"
					},
					{
						"astId": 5,
						"contract": "MyBooks.sol:myBook",
						"label": "price",
						"offset": 0,
						"slot": "1",
						"type": "t_uint8"
					}
				],
				"types": {
					"t_string_storage": {
						"encoding": "bytes",
						"label": "string",
						"numberOfBytes": "32"
					},
					"t_uint8": {
						"encoding": "inplace",
						"label": "uint8",
						"numberOfBytes": "1"
					}
				}
			},
			"userdoc": {
				"kind": "user",
				"methods": {},
				"version": 1
			}
		}
	}
}